:020000040800F2
:10000000280800208102000857310008FF25000859
:1000100053310008C31E0008E14200080000000040
:100020000000000000000000000000005D3D00082E
:100030005921000800000000453C0008713E0008FE
:100040009B0200089B0200089B0200089B0200081C
:100050009B0200089B0200089B0200089B0200080C
:100060009B0200089B0200089B0200089B020008FC
:100070009B0200089B0200089B0200089B020008EC
:100080009B0200089B0200089B0200089B020008DC
:100090009B0200089B0200089B0200089B020008CC
:1000A0009B0200089B0200089B0200089B020008BC
:1000B000D53E00088D3F00089B0200089B02000807
:1000C0009B0200089B0200089B0200089B0200089C
:1000D0009B020008B5400008D14000089B020008C0
:1000E0009B0200089B0200089B0200089B0200087C
:1000F0009B0200089B0200089B0200089B0200086C
:100100009B0200089B0200089B0200089B0200085B
:100110009B0200089B0200089B0200089B0200084B
:100120009B0200089B0200089B0200089B0200083B
:1001300000F002F800F094F80AA090E8000C824465
:100140008344AAF10107DA4501D100F089F8AFF242
:10015000090EBAE80F0013F0010F18BFFB1A43F0A5
:1001600001031847686F0000886F0000103A24BF31
:1001700078C878C1FAD8520724BF30C830C144BF0C
:1001800004680C607047000000230024002500264E
:10019000103A28BF78C1FBD8520728BF30C148BFEA
:1001A0000B6070476E2900F03785702900F0E781F9
:1001B000662906F04C83652906F04983672906F015
:1001C00046836129AFF3008003681B0A28BF41F012
:1001D0008001692900F05881642900F05581752952
:1001E00000F052816F2901F03380782900F0B3814B
:1001F000E92900F0CD87E42900F0CA87F52900F04D
:10020000C787EF2901F03080F82900F0B281036838
:10021000DB0928BF41F08001632900F04E87732974
:1002200000F05387E32901F01381F32901F01881CD
:10023000002070471FB59DE8030000F041FC01F06D
:1002400059F804000020002105F06EFC401C60609D
:100250000020002105F07EFCE0601FBD10B510BD40
:1002600001F0E8F91146FFF7E5FF04F0D1FA01F0DB
:1002700014FA03B4FFF7F2FF03BC01F041FA0000E7
:100280000948804709480047FEE7FEE7FEE7FEE72A
:10029000FEE7FEE7FEE7FEE7FEE7FEE70448054966
:1002A000054A064B70470000753E00083101000802
:1002B000280200202808002028040020280400200C
:1002C00070B5064600F0DCFB056806F10B0020F077
:1002D0000704B4429CBF002070BD2B466A68BAB1C7
:1002E0001068A04210D304F1080188423CBF506856
:1002F000586007D35168101941601168091B0160EB
:1003000058601460101D70BD13465268002AE7D172
:100310002146284600F0C0FB0028DED170BD70B534
:100320000446051F00F0ACFB0068002C14BF4468B5
:1003300070BD002C18BFAC423CBF20466468F8D3A7
:1003400001680A18AA4218BF456003D12A68054609
:100350001144016028684119A1421CBF6C6070BD46
:100360006168696021680844286070BD10B5044662
:1003700000F07EFB0068005DC00602D504F120009D
:1003800010BD204610BD00007CB51D4616460C0071
:10039000009001D02044401E074B7B442A4669460A
:1003A0000190304600F05FFE05461CB10020694612
:1003B00000F06CFE28467CBDF90C00000FB41CB5A3
:1003C000084B06AA7B4469460090059800F04BFE56
:1003D00004460020694600F059FE20461CBC5DF82A
:1003E00014FB0000C50C000070B504468569006868
:1003F000C10601D5302600E02026C00707D070BD19
:10040000D4E9012130469047206A401C20626D1ECD
:10041000F6D570BD70B5044685690078C00707D170
:1004200070BDD4E9012120209047206A401C206241
:100430006D1EF6D570BD70B50C460546012A05D077
:100440002878800600D5EA69002302E0012305E050
:100450005B1C934202D2E05C0028F9D1A869E6183F
:10046000C01AA861286A184428622846FFF7BCFF12
:1004700004E0D5E9012114F8010B9047B442F8D308
:100480002846FFF7C7FF70BD2DE9F041064600245E
:1004900010687529314616A510D000F052FB0028CF
:1004A00002DA404213A507E031688A0701D512A598
:1004B00002E0490704D511A5012401E000F04AFB40
:1004C00000210A2206F1240709E0B0FBF2FCB0FB90
:1004D000F2F302FB1C00303078541846491C002807
:1004E000F3D123462A463046BDE8F04100F03BBB3D
:1004F000000000002D0000002B0000002000000084
:10050000F0B40D460188090502D5214C7C4402E077
:100510001F4C7C440E34002100F1240608E002F058
:100520000F071209E75D42EA03721B097754491C61
:1005300052EA0307F3D102780023120704D5702D85
:1005400006D009B1022311342246F0BC00F00BBBE7
:1005500001231034F8E770B504460D4621461068B3
:1005600000F0F8FA024629462046BDE87040002314
:10057000C6E7D21D22F00703D3E90023C0E70368D2
:10058000126843F0200303600823C3610023B7E728
:100590003F6A00002DE9F05F894604464FF0000AEB
:1005A000DFF874B1FB44C0F820A02046E16888471A
:1005B000002874D0252806D0D4E901219047206A6C
:1005C000401C2062F1E700265F462046E16888472C
:1005D0002028054607DB312D05D2781910F8200CAC
:1005E00008B10643F1E7B00701D526F00406C4F8C8
:1005F0001CA00027C4F818A02A2D09D0284603F013
:10060000E5FF38B304EB8708303DC8F8185019E00F
:1006100059F8041B204604EB87029161E168884782
:10062000012F054618D1E069002820DA26F02006BF
:100630001DE0D8F8180000EB800005EB40003038D2
:10064000C8F818002046E1688847054603F0BEFF59
:100650000028EED1012F0AD02E2D08D12046E168C6
:1006600088477F1C0546022F46F02006C4DBA069A0
:10067000002803DA404246F00106A061F00701D0ED
:1006800026F010066C2D0BD0682D09D04C2D39D0DA
:100690006A2D35D0742D35D07A2D33D016E038E060
:1006A000E1682F4620468847B842054609D16C2F9D
:1006B00026D04FF48060E16806432046884705460F
:1006C00004E06C2F1AD04FF4807006430DB3A5F1EF
:1006D0004100192802D8203546F400664A462946CA
:1006E000204626604E46FFF75DFD80B101280BD005
:1006F000F61D26F0070000F1080956E74020E4E760
:100700008020D8E70020D6E706F104094DE7284607
:1007100052E7206ABDE8F09FCF69000070B5064639
:1007200000F0B2F90468054630460A22002100F0C4
:10073000A5FD2C6070BD401ECAB210F8011F8A4290
:1007400002D00029F9D10020704710B5431E13F8DC
:10075000014F002CFBD105E011F8014B002C03F8F0
:10076000014B03D0521EF7D20021197010BD30B5D5
:1007700005460B462A4613F8014B12F8010B08B147
:10078000A042F8D01CB1002802D06D1CF1E7284629
:1007900030BD10B5431C02E010F8011B71B1810798
:1007A000FAD14FF0013202C88C1A8C4314EAC211FC
:1007B000F9D0C01A0A0603D0C01E10BDC01A10BD61
:1007C0000A0401D0801E10BD0902FCD0401E10BDDD
:1007D00040EA010370B59B072ED14FF00136042A81
:1007E0002AD308C810C99D1B9D43121F15EAC615C0
:1007F00017D0D8B2E1B2401A50EA056110D198B2D0
:10080000A1B2401A50EA05410AD123F07F4024F0FA
:100810007F41401A50EA052102D1180EA0EB146066
:1008200070BDA342DBD018BA21BA884201D9012099
:1008300070BD4FF0FF3070BD0AB9002070BD10F8D8
:10084000013B11F8014B63B1A3420AD1521E08D0FB
:1008500010F8013B11F8014B1BB1A34201D1521E0C
:10086000EDD1181B70BD032A40F2308010F0030C4C
:1008700000F0158011F8013BBCF1020F624498BFF3
:1008800011F801CB00F8013B38BF11F8013BA2F190
:10089000040298BF00F801CB38BF00F8013B11F00B
:1008A000030300F02580083AC0F0088051F8043BAB
:1008B000083A51F804CBA0E80810F5E7121D5CBF18
:1008C00051F8043B40F8043BAFF30080D20724BF4B
:1008D00011F8013B11F801CB48BF11F8012B24BFDF
:1008E00000F8013B00F801CB48BF00F8012B70472E
:1008F00010B5203AC0F00B80B1E81850203AA0E8BB
:100900001850B1E81850A0E81850BFF4F5AF5FEAEE
:10091000027C24BFB1E81850A0E8185044BF18C9A1
:1009200018C0BDE810405FEA827C24BF51F8043B48
:1009300040F8043B08BF7047D20728BF31F8023B9C
:1009400048BF11F8012B28BF20F8023B48BF00F830
:10095000012B70474FF000020429C0F0128010F004
:10096000030C00F01B80CCF1040CBCF1020F18BF8B
:1009700000F8012BA8BF20F8022BA1EB0C0100F01E
:100980000DB85FEAC17C24BF00F8012B00F8012BF1
:1009900048BF00F8012B70474FF0000200B5134626
:1009A00094469646203922BFA0E80C50A0E80C508F
:1009B000B1F12001BFF4F7AF090728BFA0E80C5040
:1009C00048BF0CC05DF804EB890028BF40F8042B39
:1009D00008BF704748BF20F8022B11F0804F18BFA6
:1009E00000F8012B704700004FF0013C50F8042B39
:1009F00051F8043B9A4221D1A2EB0C03934313EA32
:100A0000CC1317D150F8042B51F8043B9A4215D15E
:100A1000A2EB0C03934313EACC130BD150F8042B35
:100A200051F8043B9A4209D1A2EB0C03934313EA19
:100A3000CC13DBD04FF00000704700BFD01A01BAD2
:100A4000B1FA81F101F0180122FA01F0CB40C1F1B5
:100A50002001DBB2C0B2C01A2CFA01F3D11A9143C3
:100A600011EAC311E6D17047704770477047000024
:100A700010B500F03FFC001D10BD00BFAD500000E0
:100A800000487047D001002000487047C80100208E
:100A9000704770477047704738B504460A460020D3
:100AA0006946AFF30080002808BF38BD02460099B0
:100AB000204600F023FC012038BD012000F0B2BD2B
:100AC000F8B5AFF30080054600200C46102000BFAB
:100AD0000646A819A0420DD9324669460020AFF358
:100AE0000080070008BF00F09DFD0098A04218BFDD
:100AF0000546C419FFF7C4FF05600746F01D20F046
:100B000007004619284600F00AF8B44208BFF8BDAD
:100B1000A21B31463868BDE8F84000F0EFBB002169
:100B20000160C0E9011070471020704710B5FFF751
:100B3000ABFF006810BD10B50446FFF7A5FF0460C9
:100B400010BD09684A0501D540B27047C905FCD5FA
:100B500000B2704709684A0501D5C0B27047C9059F
:100B6000FCD580B270472DE9F0470D469946924674
:100B7000044600F124080168880604D5E06921F0E4
:100B80001001216000E00120A84201DD471B00E0C8
:100B90000027A1697A1902EB0900081AA0612078E0
:100BA000C00602D42046FFF71FFC002608E0D4E967
:100BB00001211AF806009047206A401C761C20622A
:100BC0004E45F4DB2078C0060AD52046FFF70CFC22
:100BD00006E0D4E9012130209047206A401C2062C1
:100BE000381EA7F10107F4DC07E0D4E9012118F869
:100BF00005009047206A401C2062281EA5F10105CF
:100C0000F3DC2046FFF706FC2078000602D5022020
:100C1000BDE8F0870120FBE711680268006A530510
:100C200001D508700AE0D30501D5088006E0130657
:100C300003D5C217C1E9000200E008600120704737
:100C400070472DE9FF4F0C461E464FF0FF378BB023
:100C5000D2E90001DDF860800A908A46C1F30A55A6
:100C600005B93D46002108464FF00000BAF1000FDB
:100C700000F4400005DA00EB80004FF4400101EA87
:100C800050004FEA9059B9F1010F00DDB9460A98BA
:100C900050EA4A000ED044F61050A5F2FF35454305
:100CA0002F14B8F1000F1ED07542291E1EDDC9F1A8
:100CB00000021CE0B8F1010F4FF0000001D030211C
:100CC00003E0F24305E02154401CB042FBDB304618
:100CD0000022002121540B99C1F80880C1E90020AD
:100CE0000FB0BDE8F08FBD1B6D1CDEE74A4600DA91
:100CF000694206A800F008FC06AB93E8070003ABC6
:100D000083E8070050460A9900F020FD8DE80700AF
:100D1000A0F500501F3800900398002D09DD42F225
:100D20001F014A46084403A90390684600F07FFF6C
:100D300008E0A0F500504A461F3803A90390684612
:100D400000F089FF8DE807000004000C03D04FF08D
:100D5000FF30410800E01046B8F1000F03D0002238
:100D6000009215461EE0751E05D400F0E1FA3032FF
:100D700062556D1EF9D5B3460122084302D0002208
:100D80007F1C04E02078302801D100227F1E002A39
:100D9000099786D01DE0112D07DA00F0C9FA30322C
:100DA00062556D1C50EA0102F5D1084302D000984B
:100DB000C8B10EE00021681E05E0235C625C63544C
:100DC0002254401E491C8142F7DBAB46A81B401E43
:100DD0000990002004F80B000B98099AC0F80880CD
:100DE000C0E9002B7CE711264FF0000859E72DE9F8
:100DF000F04F88460446D21D22F0070191B0D1E998
:100E00000001CDE90A0103F058FB02460B98C00F20
:100E100001D02D2007E02068810701D52B2002E0BA
:100E2000202101EAC000032A099001D0072A05DB2E
:100E300003464146204600F0C1FA0BE120788006C7
:100E400001D5E06900E00620B8F1650F814606D0C3
:100E5000B8F1660F18D0B8F1670F70D131E00020FB
:100E6000B9F1110F009001DB112301E009F1010339
:100E70000AAA01A90CA8FFF7E4FEDDE90C70002620
:100E800009F10105834647E001204B4600904FF0F1
:100E900000470AAA01A90CA8FFF7D3FEDDE90DB0AF
:100EA0000C995D46002610B909F101000D18B9EB47
:100EB000050003D4C0F1FF3609F10105A5EB0900D7
:100EC0002BE0B9F1010F01DA4FF001090020B9F16F
:100ED000110F0090484601DD112300E003460AAAE5
:100EE00001A90CA8FFF7ADFEDDE90C704D46002608
:100EF0008346207800070AD4AB4500DA5D4601A896
:100F0000012D04DD411911F8011C302907D04F458E
:100F100002DA17F1040F04DA012082460FE06D1E99
:100F2000EEE7002F02DCED1B3E4403E0781CA842F4
:100F300000DD7D1CB81B00F1010A4FF0004720784E
:100F4000000703D4AA4501DB4FF0FF3A0021B7F1B7
:100F5000004F0DF143088DF8431024D002202B23BD
:100F6000002F01DA7F422D230A21021EA0F1010089
:100F700000DC5FB197FBF1FC97FBF1F201FB1C7CFD
:100F800017460CF1300C08F801CDEEE7A8F101008E
:100F900003702188090501D5452100E06521A0F1F4
:100FA000010800F8011C09980FA9A1EB0807FF1D13
:100FB00000B10120411901EBEA70A1693844081A17
:100FC000401EA0612078C00602D42046FFF70CFA2C
:100FD000099828B1D4E901219047206A401C206279
:100FE0002078C00622D52046FFF7FEF91EE0002E2D
:100FF00004DBB34502DD01A8805D00E03020D4E9C8
:1010000001219047206A401C2062761CAAF1010051
:101010005FEA000A0AD100F06DF9C0680168405C1F
:10102000D4E901219047206A401C2062281EA5F1C6
:101030000105DCDC07E0D4E9012118F8010B904739
:10104000206A401C2062381EA7F10107F3DC20460D
:10105000FFF7E0F9032011B043E6000001694A1CE4
:1010600002610878704700B58FB0CDE901310021E9
:10107000059105497944CDE9031011466846FFF70B
:1010800089FA0FB000BD0000E5FFFFFF0A6802F813
:10109000010B0A607047D1E900239A4202D2531C27
:1010A0000B601070704710B5436913B1AFF3008047
:1010B00001E0FFF7C0F9012010BD127800F1240112
:1010C0000A7000224A700122EDE711684FF0FF32EA
:1010D000E9E700002DE9FF5F15468A460446DFF880
:1010E000AC80F8440027D8E900103E46CDE9001056
:1010F00010E03AF816106A4602A800F073FA411C94
:1011000007D02178890603D5E269391891420DD8B4
:101110000744761C2078800602D5E069B84205DDD8
:10112000AE42E6DB3AF816000028E2D1A069C01B07
:10113000A0612046FFF758F9D8E90010CDE900106A
:10114000002017E03AF818106A4602A800F04AFAA0
:10115000B0F1FF3F81460BD000250DF1080B05E0F3
:10116000D4E901211BF8050090476D1C4D45F7D3CC
:1011700008F10100B0428046E4DB206A3844206276
:101180002046FFF747F9BDE8FF9F00002A5F0000F7
:101190002DE9F0418046D21D22F007020025D2E958
:1011A0000002F52915A614D0011E72F1000106DA1D
:1011B0000023D0EB030063EB020211A608E0D8F88D
:1011C00000108B0701D50FA602E0490701D50EA636
:1011D00001251146002408F1240704E000F0A8F8D6
:1011E00030323A55641C50EA0102F7D12B463246A0
:1011F00021464046BDE8F041FFF7B5BC00000000C5
:101200002D0000002B0000002000000030B4002161
:1012100000F1240408E002F00705D208303542EA64
:101220004372DB086554491C52EA0305F3D1046894
:10123000002310A2250708D504F020040C4304D095
:10124000C46901230CA2641EC46130BCFFF78BBCCF
:1012500010B5044621461068FFF77CFC0246204684
:10126000BDE810400023D1E7D21D22F00701D1E9EB
:101270000023CBE700000000300000002DE9F0471C
:1012800091460F4680460446002614F8015B2DB1B6
:10129000FFF7EEFB0068405DC007F6D12B2D02D0B2
:1012A0002D2D18D0641E4A463946204600F0DCF841
:1012B00027B13968A14201D1C7F800804FF002047C
:1012C00071050BD54042002803DDFFF7DDFB04600C
:1012D000A007BDE8F08746F48066E4E70028F8DA66
:1012E000FFF7D2FB04606FF00040F2E70048704760
:1012F000C801002000487047E8010020034640680C
:101300008C46002818BF88423CBF03464068F8D38B
:1013100018681844884207D00CF1030020F0070039
:10132000001D411A521A0146081D0A60FEF7F7BF58
:1013300030B5B0F10A024FEA900E71F100034EEAA7
:10134000817EB0EB0E0061EB91014FEA101E4EEA78
:10135000017E10EB0E0041EB11114FEA102E4EEA08
:10136000016E10EB0E0041EB11214FEA104E4EEAD8
:10137000014E10EB0E0041EB1141401841F100010C
:101380004FEAD00040EA41704FEAD10110EB8005EE
:101390004FEA810444EA907444EB01046D1944EB74
:1013A0000404521BA3414FF0000348BF0A3200D58A
:1013B00030BD401C41F1000130BD00002DE9F0417D
:1013C0001F46044603260168072A01F4006004DB77
:1013D00008B116A505E016A503E008B115A500E0C3
:1013E00015A521F010002060A069C01EA0610FB1FA
:1013F000401EA0612046FEF7F7FF4FB1D4E901215E
:1014000038469047206A401C2062C01C206206E0DB
:10141000206AFAE7D4E9012115F8010B9047761EFE
:10142000F8D22046FEF7F6FFBDE8F0814E414E00AF
:101430006E616E00494E4600696E660010B54369E4
:1014400013B1AFF3008001E0FFF744FE012010BDAF
:10145000128800F1240182840022C2840122EDE777
:1014600011684FF0FF32E9E72DE9F05F824615463B
:101470008B4600270AF10104B9460078302801D0D4
:101480009DB113E014F8010B0127782803D05828E8
:1014900001D045B10AE00DB1102D07D1002714F895
:1014A000010B102502E0082500E00A250026B046C1
:1014B0000EE005FB080005FB06F101271FFA80F886
:1014C00001EB1046B6F5803F00D3B94614F8010B86
:1014D000294600F0D4F80028EBDABBF1000F05D064
:1014E0000FB1641E00E05446CBF80040B9F1000F84
:1014F00006D0FFF7C9FA02210160C81EBDE8F09FBF
:1015000048EA0640FAE700002DE9F0478146164612
:101510008AB0334878440DC88DE80D0030487844CF
:10152000801C03AC0DC884E80D0041F69B300844D4
:10153000372190FBF1F290FBF1F5A5F1800501FB5D
:1015400012041B3C02D56442012000E00020DFF8B9
:1015500090A080460027FA44AAF1BE0A0DE0E007F9
:1015600009D03246684607EB47010AEB810100F0DB
:1015700072FB8DE8070064107F1C002CEFD1184F20
:101580007F44AC3F18E0E80714D007EB04100DF1DE
:10159000180A90E80E008AE80E00C068F04201D1F7
:1015A00098190890324606A903A800F054FB03AB33
:1015B00083E807006D10641C002DE4D132466946B3
:1015C000B8F1000F03A802D000F031FB01E000F0F9
:1015D00042FBC9E90001C9F808200AB0BDE8F0875C
:1015E000845B000070B516460C460546FFF740FACE
:1015F000036893F80101012806D0FF2C0FD8185D6D
:1016000068B101202C7070BDD3F807013246214625
:1016100003F2071303442846BDE8704018474FF013
:10162000FF3070BD10B500F043F8BDE8104000F089
:101630003AB870477546FFF759FEAE460500694651
:10164000534620F00700854618B020B5FEF726FE69
:10165000BDE820404FF000064FF000074FF00008B3
:101660004FF0000B21F00701AC46ACE8C009ACE834
:10167000C009ACE8C009ACE8C0098D4670473A28FB
:1016800000D2303820F02002412A01D3A2F13700E5
:10169000884201D34FF0FF3070470446AFF300801B
:1016A0002046FEF7E6FD002801D000F029B870477B
:1016B00010B5012805D0002103A000F027F8012073
:1016C00010BD09A1F8E7000053494752544D454D5C
:1016D0003A204F7574206F662068656170206D65D3
:1016E0006D6F7279000000003A2048656170206DCE
:1016F000656D6F727920636F7272757074656400C6
:1017000001491820ABBEFEE72600020070B5054671
:101710000C460A2000E06D1C00F011F835B1287865
:101720000028F8D102E0641C00F009F814B1207818
:101730000028F8D1BDE870400A20AFF3008008B55A
:1017400069468DF800000320ABBE08BD5FEA400C7F
:1017500008BF91F0000F4FEA8C234FEAC12243EA01
:1017600051514FEA1C5018BF00F5F0404FEA3000CD
:1017700018BF41F000415FEA6C5C00F02980BCF1C9
:10178000FF3F08BF40F080407047130C06BF1204B3
:101790004FF0100C4FF0000C130E04BF12020CF1AE
:1017A000080C130F04BF12010CF1040C930F04BFBB
:1017B00092000CF1020CD30F04BF52000CF1010C8B
:1017C00011464FF00002A0F11F00A0EB0C00704783
:1017D00011F0004F08BF704731F000413FF4D5AF22
:1017E0000B0C06BF09044FF0100C4FF0000C0B0E51
:1017F00004BF09020CF1080C0B0F04BF09010CF126
:10180000040C8B0F04BF89000CF1020CCB0F04BF3A
:1018100049000CF1010CCCF12003A0EB0C0022FAE2
:1018200003F302FA0CF241EA030100F101007047F0
:1018300020F07F4C80EA030023F07F47ACEB0703E6
:1018400003F57C5300F0004003F1FF032DE98049CC
:101850004FEA154B09B44FEA144325EA0B4E24EA2C
:1018600003480FF2042606EB132749083E785FEA87
:10187000320203FB0667C7F5000707FB06F64FEACF
:1018800054374FEAD64606F1020607FB066CCCF148
:10189000005C4FEA1C472CEA074C07FB06F40CFBE4
:1018A00006F504EB15464FEA961634BF00204FF0BC
:1018B00000404FEAD13706FB07FC4FEA1C4C0CFBFB
:1018C0000BF7D21B03FB0CF761EB07010CFB0EF7C8
:1018D000B0EB074072EB17420CFB08F734BFA2EBEA
:1018E0000742B2EB074261EB17414FEA0C444FEA63
:1018F000910706FB07FC4FEA1C4C0CFB0BF7B0EB07
:10190000C74072EB573203FB0CF734BFA2EBC74260
:10191000B2EBC74261EB57310CFB0EF7B0EBC700DF
:1019200072EB57720CFB08F734BFA2EBC702B2EBA5
:10193000C70261EB5771039F4FEA816141EA92113F
:1019400004EBCC044FEAD1374FEA826206FB07FC76
:1019500042EA90124FEA80604FEA1C4C0CFB0BF7F6
:10196000D21B03FB0CF761EB07010CFB0EF7B0EB8E
:10197000074072EB17420CFB08F734BFA2EB07429B
:10198000B2EB074261EB17414FEA8C554FEA9107E2
:1019900004EB9C2406FB07FC4FEA1C4C0CFB0BF7EA
:1019A000B0EBC74072EB573203FB0CF734BFA2EB2E
:1019B000C742B2EBC74261EB57310CFB0EF7B0EBFD
:1019C000C70072EB57720CFB08F734BFA2EBC702DB
:1019D000B2EBC70261EB577115EB4C254FEA816101
:1019E00041EA92114FEA82624FEAD13742EA9012FD
:1019F00006FB07FC44F100044FEA80604FEA1C4CF0
:101A00000CFB0BF7D21B03FB0CF761EB07010CFB84
:101A10000EF7B0EB074072EB17420CFB08F734BF30
:101A2000A2EB0742B2EB074261EB174115EB1C1525
:101A30004FEA813141EA92414FEA823242EA9042D2
:101A40004FEA80304FEA0C7644F1000448EA034341
:101A50004EEA0B484FF0000EB2EB080C71EB030797
:101A600024BF624639464EEB0E0E4FF0000B0018B5
:101A7000524149414BEB0B0BB2EB080C71EB0307E6
:101A80007BF1000B24BF624639464EEB0E0E4FF041
:101A9000000B0018524149414BEB0B0BB2EB080C09
:101AA00071EB03077BF1000B24BF624639464EEB16
:101AB0000E0E51EA020718BF46F0010616EB0E762D
:101AC00055F1000254F1000103D5BDE88901BDE8DC
:101AD0000088BDE88901BDE80048B619524141EBD4
:101AE0000101A3F10103704780807F7E7D7C7B7ABA
:101AF0007978777676757473727171706F6E6E6DBA
:101B00006C6C6B6A6A69686867666665646463635F
:101B100062616160605F5F5E5E5D5D5C5C5B5B5AE5
:101B20005A59595858575756565555555454535352
:101B300052525251515050504F4F4F4E4E4D4D4DAD
:101B40004C4C4C4B4B4B4A4A4A49494948484847F8
:101B50004747474646464545454444444443434336
:101B60004342424242414141002B26D4770021D0DA
:101B70001CB54FEA370703B44FF010004FF01001C7
:101B80004FF000000FBCBDE810400BF1010BBBF1A2
:101B9000010F08BF5FEA170722BF12F1010211F11E
:101BA00001014FF0004143F1000300F0004043EA1F
:101BB00000007047F9D35708DAE746EA064613F102
:101BC000400F4FEA16461FDD13F1200FDFBF16430B
:101BD0000A46002120335B42C8D0C3F1200746EA01
:101BE000064602FA07F74FEA164646EA0706C3F129
:101BF000200722FA03F201FA07F721FA03F14FF066
:101C0000000342EA0702B1E746EA020646EA064650
:101C10004FEA164646EA0106BCBF46EA0646360CBF
:101C20004FF000034FF000024FF000019EE72DE956
:101C3000C048934630B491E8380007C831EA400CF8
:101C400048BF34EA430C03D5FFF7F2FDFFF78CFFE2
:101C5000F0BCBDE800882DE9C048934630B491E857
:101C6000380007C810F0804F08BF13F0804F03D131
:101C700000F005F8FFF778FFF0BCBDE8008820F021
:101C80007F4780EA030023F07F4C07EB0C03A3F5AA
:101C90007C5300F00040A3F1FE0392F0000F00F02F
:101CA000B38095F0000F00F077802DE901494FEAED
:101CB00011404FEA144621EA004800FB06FC24EAE2
:101CC000064708FB06F607FB08F800FB07F718EBCA
:101CD00006484CEB164C4FEA124B18EB07484FEAFC
:101CE00015464CEB174022EA0B4E0BFB06FC25EA8F
:101CF00006470EFB06F607FB0EFE0BFB07F71EEB77
:101D0000064E4CEB164C4FF000061EEB074E4CEB0C
:101D1000174B18EB0B0840F1000018EB0E0B58EBBB
:101D2000000840F100008F1A4FF000013CBFC9438A
:101D3000661B14BFB5EB040C00213CBFC943F61B66
:101D40004FEA17444EEA8E0E27EA04454FEA1C4735
:101D500004FB07622CEA074C05FB07F70CFB05F6B2
:101D600004FB0CFC16EB074642EB174216EB0C4645
:101D700042EB1C421BEB060658EB0202414146EACD
:101D80009E0601D5BDE80189B619524141EB01011A
:101D9000A3F10103BDE801894FEA14454FEA114759
:101DA00024EA054621EA074C05FB07F406FB07F782
:101DB0000CFB06F105FB0CFC11EB074144EB17444F
:101DC0004FEA124711EB0C4144EB1C4422EA074C4A
:101DD00005FB07F206FB07F70CFB06F605FB0CFC00
:101DE00016EB074642EB174216EB0C4642EB1C453E
:101DF0006A1854F1000148BF7047B619524141EBCF
:101E00000101A3F10103704795F0000F37D04FEAAD
:101E100011424FEA144721EA024624EA074C02FB2A
:101E200007F106FB07F70CFB06F402FB0CFC14EBB6
:101E3000074441EB17414FEA154714EB0C4441EBC3
:101E40001C4125EA074C02FB07F506FB07F70CFBD4
:101E500006F602FB0CFC16EB074645EB174516EBA6
:101E60000C4645EB1C42121951F1000148BF704766
:101E7000B619524141EB0101A3F1010370474FEA4A
:101E800014454FEA114724EA054621EA074C05FBB1
:101E900007F106FB07F70CFB06F24FF0000605FB07
:101EA0000CFC12EB074241EB174112EB0C4251EBD9
:101EB0001C4148BF7047921841EB0101A3F1010397
:101EC000704700BFFEE7000010B5002415484068C9
:101ED00020F47040134948600846406840F40040D0
:101EE000486004E0601CC4B2012002F06BFC0E48A4
:101EF000006808B1C82CF5DBC82C01DB012010BD3F
:101F0000002404E0601CC4B2012002F05BFC06481F
:101F1000006808B9F02CF5DBF02C01DB0120EEE7BE
:101F20000020ECE7002001402C0124422DE9F84F6D
:101F300000F0CCF800F0A8F8FFF7C6FFCC2000F0C6
:101F4000D1F8BE2000F0CEF800F08CF8834600F007
:101F500089F80446072C08DDE043C4B26FEA0B00A1
:101F600000F0FF0B4FF0000A01E04FF0010AA1461C
:101F70004FEA09200FFA80F909EB0B000FFA80F9FC
:101F8000484604F001FC009004F0D2FB0746002212
:101F9000084B04F0BDF8054604F038F80FFA80F954
:101FA000BAF1000F02D04846BDE8F88FC9F1000031
:101FB00000B2F9E70000E43F08B50121080201F092
:101FC00053FE4FF40060ADF8000010208DF80300C0
:101FD00003208DF802006946064800F075FA4FF4B8
:101FE0000061044800F004FB00F04EF8FFF76CFFBE
:101FF00008BD00000020014010B51748406820F4DB
:102000007040154948600846406840F440504860B8
:10201000002012490860022002F0D4FB0120104980
:10202000C1F8AC010C48406820F470400A4948608F
:102030000846406840F4004048600C2002F0C2FBB3
:1020400006488038006808B1012400E000243220EE
:1020500002F0B8FB204610BD00200140AC01244234
:102060000000244270B50026012508E0FFF7C4FFF8
:102070000446E00140EA6600C6B2681CC5B2082DFD
:10208000F4DD304670BD000010B50D48406820F406
:1020900070400B4948600846406840F44050486032
:1020A00000200849086040F2EE2002F08BFB01207E
:1020B0000549C1F8AC010F2002F084FB10BD0000FF
:1020C00000200140AC0124420000244210B5FFF77B
:1020D000DBFFFFF7F9FECC2000F004F8442000F00D
:1020E00001F810BD70B504461848406820F47040EF
:1020F000164948600846406840F440504860012551
:1021000020E004F0010664106EB100201049086060
:10211000022002F057FB01200E49C1F8AC013C201F
:1021200002F050FB0CE00020094908603C2002F05E
:1021300049FB01200749C1F8AC01022002F042FB33
:10214000681CC5B2082DDCDD70BD00000020014018
:10215000AC012442000024427047000010B58021E9
:102160000348FEF7F7FB00200249088010BD00007D
:10217000480100203400002070B50546002400BF4F
:1021800000F088F980B90DA10E48FEF7F0FA044678
:1021900054B13A212046FEF7CEFA044614B1641C2D
:1021A000204670BD0020FCE7052002F0E5FA681E1D
:1021B00085B2002DE4DC0020F3E700004950442CF8
:1021C000000000004801002008B50121042001F0B2
:1021D0004BFD10208DF803000002ADF80000032035
:1021E0008DF802006946404800F06EF900224FF475
:1021F00080513D4800F0FEF9FA2002F0BDFA0122BC
:102200001103394800F0F6F94FF4FA7002F0B4FA0D
:10221000FFF7A4FF35A1374802F012F903E04FF4AD
:10222000FA7002F0A9FA34A134A000F0E5F8002811
:10223000F5D134A12F4802F003F903E04FF4FA700E
:1022400002F09AFA2EA132A000F0D6F80028F5D1BB
:1022500003E04FF4FA7002F08FFA29A12FA000F0EA
:10226000CBF80028F5D131A1224802F0E9F803E0CB
:102270004FF4FA7002F080FA1FA12FA000F0BCF812
:102280000028F5D130A11B4802F0DAF803E04FF442
:10229000FA7002F071FA18A12FA000F0ADF8002832
:1022A000F5D131A1134802F0CBF803E04FF4FA70F6
:1022B00002F062FA2FA131A000F09EF80028F5D1BB
:1022C00036A10C4802F0BCF803E04FF4FA7002F0BB
:1022D00053FA36A137A000F08FF80028F5D140A1BD
:1022E000044802F0ADF808BD00100140302E204136
:1022F000540D0A00003801404F4B000041540D0AB4
:1023000000000000312E205253540D0A000000003E
:1023100041542B5253540D0A0000000041542B43EA
:102320004950434C4F53450D0A000000322E2043C4
:10233000574D4F44450D0A0041542B43574D4F44D0
:10234000453D310D0A000000332E2041542B4357E8
:10235000444843500D0A000041542B43574448431E
:10236000503D312C310D0A00342E2043574A415044
:102370000D0A0000474F54204950000041542B43A0
:10238000574A41503D226C696E7869222C223132C5
:10239000333435363738220D0A000000352E2043FD
:1023A000495053544152540D0A000000434F4E4EC1
:1023B0004543540041542B43495053544152543DDA
:1023C00022544350222C2262726F6B65722E656D0F
:1023D00071782E696F222C313838330D0A000000D5
:1023E000362E204553503832363620496E697420D7
:1023F0004F4B0D0A000000002DE9F04104460D4648
:10240000C8262046FEF7C5F987B23A4621460D4850
:1024100002F03AF80FE000F03DF848B929460A48C2
:10242000FEF7A5F920B1FFF799FE0020BDE8F08185
:102430000A2002F0A1F93000A6F10101CEB2EAD1E2
:102440000120F3E7004400404801002030B589B086
:1024500004460D46FFF782FE2A4608A101A8FDF7B3
:10246000ADFF0AA101A8FFF7C7FF20B92A46214600
:10247000074802F009F809B030BD000041542B4371
:10248000495053454E443D25640D0A003E0000006E
:10249000004400400A48008808B9012070470848F5
:1024A000008808490988884203D10020044908802F
:1024B000F4E703480088034908800120EEE70000A4
:1024C00034000020360000202DE9F04102460025AE
:1024D0000026002000230024002791F803C00CF000
:1024E0000F0591F803C00CF0100CBCF1000F03D0E5
:1024F00091F802C04CEA050591F800C0BCF1000F4C
:1025000031D0146800202BE04FF0010C0CFA00F3DE
:10251000B1F800C00CEA03069E4220D183004FF0C0
:102520000F0C0CFA03F7BC4305FA03FC4CEA040455
:1025300091F803C0BCF1280F06D14FF0010C0CFA42
:1025400000FCC2F814C00AE091F803C0BCF1480FC7
:1025500005D14FF0010C0CFA00FCC2F810C0401C71
:102560000828D1D31460B1F800C0BCF1FF0F34DDEE
:10257000546800202EE000F1080C4FF0010808FA22
:102580000CF3B1F800C00CEA03069E4221D183008F
:102590004FF00F0C0CFA03F7BC4305FA03FC4CEAAE
:1025A000040491F803C0BCF1280F05D100F1080C18
:1025B00008FA0CF8C2F8148091F803C0BCF1480F77
:1025C00007D100F1080C4FF0010808FA0CF8C2F826
:1025D0001080401C0828CED35460BDE8F08102462C
:1025E000002093680B400BB1012000E000207047F1
:1025F000016170470AB1016100E04161704700BFAD
:10260000FEE7000008B50121482001F02DFB202045
:10261000ADF8000010208DF8030003208DF80200B3
:1026200069460948FFF750FF20210748FFF7E0FF00
:102630002020ADF8000069460448FFF745FF20213F
:102640000248FFF7D5FF08BD000C0140001801400B
:1026500010B50446207B012802D12068FDF75FFEFB
:10266000002020606060A060207310BD024600233F
:1026700001230DE002F07F000870D2092AB108782A
:1026800040F080000870491C01E0184670475B1C50
:10269000042BEFDD4FF0FF30F8E770B504460E462F
:1026A0000025206898B9012020733046FDF708FE08
:1026B00020602068E0B100206060A66003E0002098
:1026C000216848556D1CA068A842F8D810E0022087
:1026D000207303E00020216848556D1CA068A842C3
:1026E000F8D800206060A068B04201D200202060CD
:1026F00070BD00002DE9FF5F07460D469046384645
:10270000FEF747F886B22846FEF743F81FFA80FA2C
:102710004FF00009F01DFDF7D3FD04461CB9012060
:1027200004B0BDE8F09FF11D2046FEF713F912A09A
:10273000016821608088A080324639462046FEF735
:1027400004F82846FEF725F8834601200021009171
:102750005B462A46CDE90208019121460A2000F095
:102760005FF910B94FF0000901E04FF00109204670
:10277000FDF7D5FD4846D3E724637273702F000040
:102780002DE9FF4F83B082468B469146159C00256C
:10279000002002900F2701904846FDF7FAFF0FFA3C
:1027A00080F8B9F1000F03D1012007B0BDE8F08F28
:1027B00008F10200384487B2109808B145F00205CC
:1027C000129878B145F004051298FDF7E2FFC0B207
:1027D00002901398FDF7DDFF01460298001D0844A2
:1027E000384487B2119820B1012804D0022808D1BA
:1027F00004E000BF07E045F00C0504E045F01405D7
:1028000001E00220D1E700BF149808B145F024058B
:10281000BAF1000F02D0BBF1000F01D10320C4E7D1
:1028200045F0C0055046FDF7B4FF06465846FDF793
:10283000B0FF3044001D384487B239462046FFF7C8
:102840002CFF206808B90420AFE739462068FEF75E
:1028500081F810216268501C606020688154D4E9BE
:102860000023D118781FFFF701FF00B201900198F3
:10287000002804DA2046FFF7EBFE052095E76168A3
:1028800001980844606000216268501C6060206804
:10289000815404216268501C6060206881544D217D
:1028A0006268501C60602068815451216268501C2D
:1028B00060602068815454216268501C6060206808
:1028C00081546268501C60602068815404216268F1
:1028D000501C6060206881546168481C60602068FA
:1028E00045540698010A6268501C60602068815453
:1028F0000698C1B26268501C606020688154C8F3B9
:1029000007216268501C6060206881546268501C16
:102910006060206800F80280D4E9001288184246FE
:102920004946FDF712FF60684044606005F004000E
:10293000B8B30026139808B938A013901298FDF781
:1029400028FF86B2310A6268501C6060206881549A
:102950006268501C606020688654D4E900128818B0
:1029600032461299FDF7F1FE6068304460601398BA
:10297000FDF70FFF86B2310A6268501C6060206864
:1029800081546268501C606020688654D4E900124B
:10299000881832461399FDF7D8FE606830446060AD
:1029A00000BF05F08000C8B15046FDF7F2FE86B2C8
:1029B000310A6268501C6060206881546268501C53
:1029C000606020688654D4E9001288183246514667
:1029D000FDF7BBFE60683044606000BF05F040005A
:1029E000C8B15846FDF7D5FE86B2310A6268501C60
:1029F0006060206881546268501C60602068865462
:102A0000D4E90012881832465946FDF79EFE6068E8
:102A10003044606000BF0020C7E6000000000000F6
:102A20002DE9FF4F83B0834617469946139C002536
:102A300000260020029001908046BBF1000F03D1D8
:102A4000012007B0BDE8F08F00260AE00498805D01
:102A5000232803D00498805D2B2801D10220F0E7C1
:102A6000761C0498805D0028F0D148F03008119859
:102A700008B148F0010806EB0900851C109820B148
:102A8000012804D002280AD105E000BF09E048F07F
:102A90000208AD1C05E048F00408AD1C01E003206D
:102AA000CFE700BF8FB33878022821D14FF0000A5A
:102AB00000BF50460AF1010A385C7D28F9D1AAF11D
:102AC000030A0AF1070002900298A9EB000AE81C29
:102AD000A0EB0A012046FFF7E0FD206808B90420BA
:102AE000AFE7EA1CA2EB0A012068FDF733FF19E00B
:102AF000691D2046FFF7D1FD206808B90420A0E732
:102B0000691D2068FDF726FF0CE0FFE7691D2046E0
:102B1000FFF7C3FD206808B9042092E7691D20680B
:102B2000FDF718FF6168481C6060206800F80180AC
:102B3000D4E9000281182846FFF798FD019001981A
:102B4000002804DA2046FFF783FD052079E7616855
:102B5000019808446060C6F307216268501C6060F9
:102B6000206881546268501C606020688654D4E9F3
:102B70000012881832460499FDF7E7FD606830447A
:102B80006060109860B14FEA1B216268501C606061
:102B9000206881546268501C6060206800F802B0B0
:102BA000C7B1387802280BD1D4E900128818394609
:102BB000029AFDF758FE616802980844606009E0D7
:102BC000D4E9001288184A463946FDF74CFE606881
:102BD00048446060002034E770B505460C46042187
:102BE0002046FFF75AFD206808B9012070BD70210A
:102BF0006268501C60602068815402216268501C29
:102C000060602068815429126268501C60602068EE
:102C100081546268501C6060206885540020E5E79C
:102C200070B505460C4604212046FFF736FD2068A6
:102C300008B9012070BD62216268501C6060206884
:102C4000815402216268501C6060206881542912FE
:102C50006268501C6060206881546268501C60602B
:102C6000206885540020E5E72DE9FF5F8046174680
:102C700099460E9C0026B246B3460025B8F1000FD7
:102C800003D1012004B0BDE8F09F0BE057F8250008
:102C900008B90220F6E757F82500FDF77AFD06444B
:102CA000681CC5B24D45F1DB09EB4900801C00EB07
:102CB000060A0AF105012046FFF7EFFC206808B973
:102CC0000320DFE782216268501C60602068815425
:102CD000D4E9000281185046FFF7C8FC0FFA80FBC8
:102CE000BBF1000F04DA2046FFF7B2FC0420C9E76D
:102CF0006068584460604FEA18216268501C606048
:102D0000206881546268501C6060206800F802806E
:102D1000002524E057F82500FDF73BFD0646C6F3E5
:102D200007216268501C6060206881546268501CF2
:102D3000606020688654D4E90023D01857F8251025
:102D40003246FDF702FD6068304460600198C1B210
:102D50006268501C606020688154681CC5B24D4593
:102D6000D8DB00208EE7F0B504460D462646012349
:102D700000201060002114E0775C07F07F071068E6
:102D800007FB03001060705C00F0800008B9481C6D
:102D9000F0BDDB01B3F5001F02D36FF00100F7E7D0
:102DA000491CA942E8DB4FF0FF30F1E72DE9F84379
:102DB00080460C4615461E462F2108F10600FDF7F9
:102DC000BAFC07460020009017B90120BDE8F8833F
:102DD0007F1C6A46042108F10100FFF7C4FF25208B
:102DE000FDF76EFA2060206808B90220EEE7252181
:102DF0002068FDF7AFFD242239462068FDF733FD3A
:102E0000243700982C3830803188481CFDF758FA58
:102E10002860286820B92068FDF781FA0320D5E7EB
:102E20003288511C2868FDF795FD3288394628689C
:102E3000FDF719FD0020C9E701464878022801D0B6
:102E400001207047887810B18878012801D1C878AE
:102E5000F7E7FF20F5E700002DE9FC5F81460D460E
:102E600014461E46DDE90C8B99F8000000F00F0AAD
:102E7000002001900AF008000090CAF341008BF88E
:102E8000000001AA042109F10100FFF76CFF48448A
:102E9000471C0198022802D30AF0010010B1FF205C
:102EA000BDE8FC9F7878397840EA012020802088AE
:102EB000801C0199884201D9FF20F1E754A1B81C78
:102EC000FDF755FC08B10F20EAE79BF8000020B1A0
:102ED00001283DD0022877D13BE0009808B1FF20BF
:102EE000DEE72188481CFDF7EBF92860286808B95F
:102EF000FF20D5E72288511C2868FDF72BFD22888A
:102F0000B91C2868FDF7AFFC0198801E2188401A83
:102F1000A8F80000B8F80010481CFDF7D1F930609F
:102F2000306820B92868FDF7FAF9FF20B8E7B8F84B
:102F30000020511C3068FDF70DFDB8F80020B4F8F2
:102F400000C0BB1C0CEB03013068FDF78CFC4FE0AC
:102F500000BF2088801C0199884201D9FF209FE78B
:102F60002088C01C395C2088801C385C41EA002124
:102F70000E9801800E9808B9FF2091E72188481C1F
:102F8000FDF79EF92860286808B9FF2088E72288A5
:102F9000511C2868FDF7DEFC2288B91C2868FDF763
:102FA00062FC0198001F2188401AA8F80000B8F8B8
:102FB0000010481CFDF784F93060306828B9286893
:102FC000FDF7ADF9FF206BE710E0B8F80020511CC9
:102FD0003068FDF7BFFCB8F80020B4F800C03B1D16
:102FE0000CEB03013068FDF73EFC01E0FF2057E7E2
:102FF00000BF2B212846FDF79EFB20B92321284640
:10300000FDF799FB08B1FF204AE7002048E70000E0
:10301000246372657100000001464878022801D0DF
:1030200001207047887820B9C8780A2801D100208B
:10303000F7E70120F5E701464878022801D0012092
:103040007047887820B9C8780A2801D10020F7E7AE
:103050000120F5E701464878022801D00120704799
:10306000887820B9C8780A2801D10020F7E7012024
:10307000F5E702465078022801D001207047907889
:10308000B0EB112F05D1D078CBB2984201D10020FE
:10309000F4E70120F2E70000F8B50446FF272078A6
:1030A0000511012D01DB0E2D01DD3846F8BD032D84
:1030B00024D1002000906A460421601CFFF753FED3
:1030C0002044461C0098022803D3207800F0010019
:1030D00008B1FF20EAE77078317840EA0120801CCF
:1030E0000099884201D9FF20E0E706A1B01CFDF756
:1030F0003EFB08B10F2700E0032700E02F463846CB
:10310000D4E7000024637265710000000146FF20CF
:103110008A78A2B9CA78142A11D10A7932B1012A5F
:1031200005D0022A04D0802A06D103E000BF00BFE8
:10313000002003E0012001E0022000BF00BF704733
:10314000014601208A781AB9CA781E2A00D10020C7
:10315000704700BFFEE7704770B5002100230F22C3
:10316000C47804B3154C246804F4E064C4F5E06446
:10317000210AC1F10403CA40447804FA03F18478B7
:103180001440214309010E4C0678A155047804F03F
:103190001F050124AC4005786D11AD0005F1E02557
:1031A000C5F8004109E0047804F01F050124AC4093
:1031B000044D0678761145F8264070BD0CED00E010
:1031C00000E400E080E100E070B500240EE00021A2
:1031D000204600F0EAF8002504E0002000F076F92F
:1031E000681CC5B2802DF8DB601CC4B2082CEEDB75
:1031F00070BD000008B50121482000F035FD142005
:103200008DF8030003208DF802000420ADF80000C3
:1032100069460A48FFF758F90820ADF800006946EA
:103220000648FFF751F9012204210448FFF7E2F9AB
:10323000012208210148FFF7DDF908BD001801400F
:1032400070B50546002413E08020204100EA050205
:1032500008210E48FFF7CEF9012204210B48FFF7A1
:10326000C9F9002204210948FFF7C4F9601CC4B25F
:10327000082CE9DB012204210448FFF7BBF90022F6
:1032800004210248FFF7B6F970BD000000180140A4
:1032900010B5012208210948FFF7ACF901220421E9
:1032A0000648FFF7A7F9002208210448FFF7A2F912
:1032B000002204210148FFF79DF910BD00180140CC
:1032C00010B5002208210748FFF794F901220421D4
:1032D0000448FFF78FF9012208210248FFF78AF915
:1032E00010BD00000018014070B5002406E0002564
:1032F00000E06D1CB5F57A7FFBD3641CB4F57A7FD2
:10330000F5D3FFF777FFAE2000F0D0F8D52000F01E
:10331000CDF8802000F0CAF8A82000F0C7F83F20C0
:1033200000F0C4F8D32000F0C1F8002000F0BEF88F
:10333000402000F0BBF8A12000F0B8F8C82000F051
:10334000B5F8DA2000F0B2F8122000F0AFF88120D2
:1033500000F0ACF8CF2000F0A9F8D92000F0A6F8D2
:10336000F12000F0A3F8DB2000F0A0F8302000F0FE
:103370009DF8A42000F09AF8A62000F097F88D2080
:1033800000F094F8142000F091F8AF2000F08EF8CF
:10339000FFF71AFF70BD10B50246012000E0504350
:1033A0000B00A1F10101FAD110BD70B505460C4624
:1033B00045F0B00000F07AF8102141EA141000F056
:1033C00075F804F00F0000F071F870BD2DE9F041C0
:1033D00005460E461746721ED206110E6A1E52068A
:1033E000100EFFF7E2FF002409E0A7F12001134AC5
:1033F00002EB0111085D00F069F8601CC4B2082CF2
:10340000F3DB721ED206110E6A1E012303EB420289
:10341000D0B2FFF7CAFF00240BE0A7F12001074A52
:1034200002EB011204F10801505C00F04FF8601C3F
:10343000C4B2082CF1DBBDE8F08100005869000837
:103440002DE9F04780460E4617461D46002415E03C
:10345000281B411E0A20FFF79EFFB7FBF0F00A2150
:10346000B0FBF1F201FB120000F130093019C1B2DA
:103470004A464046FFF7AAFF601CC4B2AC42E7DBF5
:10348000BDE8F0872DE9F04107460E4615460024B9
:1034900007E02A5D3019C1B23846FFF797FF601C7C
:1034A000C4B2285D0028F4D1BDE8F08110B504460F
:1034B000FFF7EEFE7820FFF7C3FE0020FFF7C0FE07
:1034C0002046FFF7BDFEFFF7FBFE10BD10B504461A
:1034D000FFF7DEFE7820FFF7B3FE4020FFF7B0FED7
:1034E0002046FFF7ADFEFFF7EBFE10BD30B58BB009
:1034F00000200790089009900A90012530A037A37A
:103500003CA240A100904B4800F09AFF07A8002180
:1035100002910391CDE9041000912B0228A20191A0
:103520002EA134A0FFF72CF9002842D1089A91B2BD
:103530000798FEF78BFFFA20FEF71EFE0446002CCC
:1035400033D02046FFF7A8FD02282ED12046FFF7F2
:1035500073FC062823D2DFE800F003090E13181DC0
:1035600035A1344800F06CFF00251DE037A131483B
:1035700000F066FF18E03CA12E4800F061FF13E068
:1035800042A12C4800F05CFF0EE048A1294800F061
:1035900057FF09E04EA1274800F052FF04E057A171
:1035A000244800F04DFF00BF00BF07A8FFF750F808
:1035B00003E059A11F4800F043FF28460BB030BD7F
:1035C0006C696E78695F736D617274686F6D655F49
:1035D0003030303030303030310000006C696E787F
:1035E000695F736D617274686F6D655F68616F6B41
:1035F000616E00006C696E78695F736D61727468EA
:103600006F6D65004F6E654E65745F4465764C69FD
:103610006E6B0D0A50524F49443A2025732C0941D4
:103620005549463A2025732C0944455649443A25C4
:10363000730D0A0000380140546970733A09C1AC37
:10364000BDD3B3C9B9A60D0A000000005741524EC0
:103650003A09C1ACBDD3CAA7B0DCA3BAD0ADD2E998
:10366000B4EDCEF30D0A00005741524E3A09C1ACF9
:10367000BDD3CAA7B0DCA3BAB7C7B7A8B5C4636C3B
:1036800069656E7469640D0A000000005741524E6E
:103690003A09C1ACBDD3CAA7B0DCA3BAB7FECEF11C
:1036A000C6F7CAA7B0DC0D0A000000005741524E11
:1036B0003A09C1ACBDD3CAA7B0DCA3BAD3C3BBA778
:1036C000C3FBBBF2C3DCC2EBB4EDCEF30D0A0000CA
:1036D0005741524E3A09C1ACBDD3CAA7B0DCA3BA18
:1036E000B7C7B7A8C1B4BDD328B1C8C8E7746F6B5A
:1036F000656EB7C7B7A8290D0A0000004552523AB7
:1037000009C1ACBDD3CAA7B0DCA3BACEB4D6AAB4A3
:10371000EDCEF30D0A0000005741524E3A094D51CB
:1037200054545F5061636B6574436F6E6E65637470
:10373000204661696C65640D0A00000070B588B0B0
:1037400005460C46002004900590069007902346FD
:103750002A4610A1174800F073FE2046FDF719F81D
:10376000064604A8012100220223CDE90032CDE95A
:1037700002103346224629460A20FFF751F938B98C
:10378000059A91B20498FEF761FE04A8FEF760FF67
:1037900008B070BD5075626C69736820546F7069B1
:1037A000633A2025732C204D73673A2025730D0A48
:1037B00000000000003801402DE9F04F8FB0824634
:1037C00000200B900C900D900E900A90099008909C
:1037D0000790002606900025002483465046FFF7F8
:1037E0005BFC0646F01E0D287AD2DFE800F02B8144
:1037F0008AA4C0E5C9E5D7E5E5E5070007AB0AAA55
:1038000009A95046FFF7D2FA0546D5B9BDF81C0004
:10381000009082A18A48DDE9092300F011FE0BAA7D
:10382000DDE90901FEF766FF58B986A1844800F07A
:1038300007FE0C9A91B20B98FEF708FE0BA8FEF754
:1038400007FFBCE0854806A907AA0AABCDE900211D
:10385000029008AA09A95046FFF7FEFA0546002D76
:1038600045D1BDF81C000A99CDE90010BDF8203003
:103870007BA17348099A00F0E3FD0A9800F0FAFE74
:10388000074627B985A16E4800F0DAFD2CE085A136
:10389000384600F0CFFE814684A1384600F0CAFECB
:1038A000804684A0D9F81010FDF79EF850B9D8F8DA
:1038B0001400012803D100207F49086002E00120A4
:1038C0007D4908607DA0D9F81010FDF78DF858B932
:1038D000D8F81400012804D100207A49086003E0D8
:1038E0006AE0012077490860384600F077FE66E01C
:1038F0005046FFF791FB18B973A1514800F0A0FDA5
:103900005DE05046FFF7A6FBA0B977A14C4800F058
:1039100097FD0BA90A20FFF783F958B978A1484809
:1039200000F08EFD0C9A91B20B98FEF78FFD0BA85C
:10393000FEF78EFE43E0494801885046FFF799FBA9
:10394000A0B975A13E4800F07BFD0BA90A20FFF746
:1039500043F958B976A13A4800F072FD0C9A91B239
:103960000B98FEF773FD0BA8FEF772FE27E050469A
:10397000FFF761FB18B975A1314800F061FD1EE049
:103980005046FFF7C3FB20B976A12D4800F058FD43
:1039900003E07BA12A4800F053FD10E05046FFF7FA
:1039A000CFFB20B97DA1264800F04AFD03E082A1AB
:1039B000234800F045FD02E04FF0FF3500BF00BF97
:1039C000FEF7CCFB681C10B90FB0BDE8F08F7D216D
:1039D0000A98FCF7B0FE0446A4B1681C90B1641CC0
:1039E00006E014F8012B58460BF1010B03A90A5409
:1039F0002078302802DB20783928F2DD03A8FCF794
:103A00008DFE83460F2E01D0032E05D10998FCF7B9
:103A100086FC0A98FCF783FC00BFD5E7636D6469F8
:103A2000643A2025732C207265713A2025732C206E
:103A30007265715F6C656E3A2025640D0A000000A6
:103A400000380140546970733A0953656E6420432D
:103A50006D64526573700D0A00000000380000208C
:103A6000746F7069633A2025732C20746F706963DA
:103A70005F6C656E3A2025642C207061796C6F61F3
:103A8000643A2025732C207061796C6F61645F6CDF
:103A9000656E3A2025640D0A000000004552524F21
:103AA00052000000746172676574000076616C7585
:103AB000650000004C4544009481214262656570B8
:103AC0000000000094012342546970733A094D517B
:103AD0005454205075626C6973682053656E64207D
:103AE0004F4B0D0A00000000546970733A0952658B
:103AF00076205075626C6973685265630D0A000028
:103B0000546970733A0953656E64205075626C692C
:103B1000736852656C0D0A00546970733A095265F6
:103B200076205075626C69736852656C0D0A0000EE
:103B3000546970733A0953656E64205075626C69FC
:103B40007368436F6D700D0A000000005469707354
:103B50003A09526576205075626C697368436F6DDF
:103B6000700D0A00546970733A094D515454205332
:103B70007562736372696265204F4B0D0A00000025
:103B8000546970733A094D515454205375627363EC
:103B900072696265204572720D0A00005469707383
:103BA0003A094D51545420556E53756273637269CE
:103BB0006265204F4B0D0A00546970733A094D51EC
:103BC000545420556E537562736372696265204563
:103BD00072720D0A0000000070B586B004460D46F2
:103BE00000260020029003900490059007E054F80E
:103BF00026200DA1124800F023FC701CC6B2AE4274
:103C0000F5DB02A82B462246022100901420FFF784
:103C10002BF838B9039A91B20298FEF717FC02A864
:103C2000FEF716FD06B070BD53756273637269626C
:103C30006520546F7069633A2025730D0A000000F7
:103C4000003801407047000029B1064AD26902439A
:103C5000044BDA6104E0034AD2698243014BDA6122
:103C6000704700000010024029B1064A92690243E1
:103C7000044B9A6104E0034A92698243014B9A61C2
:103C8000704700000010024030B5002100220024DF
:103C900000232D4D6D6805F00C0121B1042905D0DC
:103CA000082923D105E0294D056022E0274D056054
:103CB0001FE0254D6D6805F47012234D6D6805F405
:103CC0008034022505EB92421CB9214D5543056015
:103CD0000BE01D4D6D6805F400351DB11C4D5543BD
:103CE000056002E0194D5543056002E0174D05607F
:103CF00000BF00BF144D6D6805F0F0010909154DB6
:103D00006B5C0568DD4045600F4D6D6805F4E06152
:103D1000090A104D6B5C4568DD4085600A4D6D6891
:103D200005F46051C90A0B4D6B5C4568DD40C56008
:103D3000054D6D6805F44041890B074D6B5CC56806
:103D4000B5FBF3F5056130BD0010024000127A00AA
:103D500000093D002000002030000020704710B511
:103D600000F002F810BD00000CB50020019000909A
:103D70003348006840F480303149086000BF304863
:103D8000006800F4003000900198401C01900098F9
:103D900018B90198B0F5A06FF1D12948006800F476
:103DA000003010B10120009001E000200090009848
:103DB000012843D12348006840F0100021490860E1
:103DC0000846006820F0030008600846006840F0DC
:103DD000020008601A48406819494860084640686F
:103DE00048600846406840F4806048600846406883
:103DF00020F47C1048600846406840F4E8104860B1
:103E00000846006840F08070086000BF0C480068F9
:103E100000F000700028F9D00948406820F0030045
:103E2000074948600846406840F00200486000BF0B
:103E30000348406800F00C000828F9D10CBD0000D0
:103E40000010024000200240042808D14FF0E02179
:103E5000096941F004014FF0E022116107E04FF0E1
:103E6000E021096921F004014FF0E022116170475F
:103E70007047000010B51348006840F00100114978
:103E8000086008464068104908400E4948600846E6
:103E900000680E4908400B4908600846006820F495
:103EA000802008600846406820F4FE0048604FF417
:103EB0001F008860FFF753FF4FF00060044908605F
:103EC00010BD0000001002400000FFF8FFFFF6FEEA
:103ED00008ED00E010B50121880700F07EF8D8B1A8
:103EE0000EA201210220FFF7CDFA02230D4802782D
:103EF00006211846FFF7A4FA0BA208210220FFF7BB
:103F0000C1FA01230948027809210220FFF798FA33
:103F10000121880700F052F810BD000074656D7033
:103F20003A000000010000202E00000000000020E8
:103F30007FB505460C4601210846FFF785FEADF822
:103F40000850ADF804400020ADF80A00ADF80600B6
:103F500001A94FF0804000F05BF801221146900764
:103F600000F04CF81C208DF8000000208DF80100B6
:103F700002208DF8020001208DF803006846FFF74B
:103F8000EBF80121880700F01CF87FBD10B5012176
:103F9000084800F022F858B10121064800F00EF858
:103FA0000548006808B9012000E0002002490860C7
:103FB00010BD00000004004094012342CA43028265
:103FC000704721B1028842F00102028004E00288B9
:103FD0004FF6FE731A400280704730B5024600204B
:103FE00000230024158A05EA0103958905EA0104E6
:103FF00013B10CB1012000E0002030BD1AB183895B
:104000000B43838102E083898B43838170470000E7
:10401000002202881D4B98420ED01D4B98420BD0B7
:10402000B0F1804F08D01B4B984205D01A4B9842F4
:1040300002D01A4B984204D14FF68F731A404B8826
:104040001A43174B984207D0164B984204D04FF6AC
:10405000FF431A40CB881A4302808B8883850B88E4
:1040600003850A4B98420BD0094B984208D00E4B5F
:10407000984205D00D4B984202D00D4B984201D189
:104080000B7A03860123838270470000002C0140D5
:10409000003401400004004000080040000C0040D3
:1040A0000010004000140040004001400044014066
:1040B0000048014010B540F22551044800F050F886
:1040C00018B12021014800F029F810BD0038014046
:1040D00010B540F225510E4800F042F8B0B10D483D
:1040E0000088802802D300200A4908800848001D63
:1040F0000088C1B2074802880088401C054B188020
:10410000054881542021024800F008F810BD000045
:1041100000440040340000204801002001F40072F7
:10412000B2F5007F00D100BFCA430280704721B1C1
:10413000828942F40052828104E082894DF6FF7345
:104140001A408281704702460020B1F5007F00D1FD
:1041500000BF13880B400BB1012000E00020704726
:1041600070B50246002400230025002040F66A16A0
:10417000B14200D100BFC1F3421501F01F03012677
:1041800006FA03F3012D02D19689334006E0022D91
:1041900002D1168A334001E0968A33400C12012680
:1041A00006FA04F41688344013B10CB1012000E083
:1041B000002070BDF0B50346002400260025002035
:1041C00040F66A17B94200D100BF1846C1F3421445
:1041D00001F01F06012707FA06F5012C01D10C306A
:1041E00004E0022C01D1103000E014301AB107684D
:1041F0002F43076002E00768AF430760F0BD00008F
:104200002DE9F04786B005460E460024A24600BFC1
:10421000A1460027B08900B100BF2F462C8A4CF67A
:10422000FF700440F08804432C82AC894EF6F310F2
:104230000440B08831890843718908430443AC8144
:10424000AC8A4FF6FF400440B0890443AC8201A819
:10425000FFF71AFD1F48874202D1DDF810A001E0E8
:10426000DDF80CA0A88900F4004040B10AEBCA00B8
:1042700000EB0A1031684900B0FBF1F807E00AEBE7
:10428000CA0000EB0A1031688900B0FBF1F8642025
:10429000B8FBF0F004012009642101FB1089A88912
:1042A00000F4004040B1322000EBC900B0FBF1F057
:1042B00000F00700044308E0322000EB09106421FD
:1042C000B0FBF1F000F00F0004432C8106B0BDE814
:1042D000F087000000380140C1F308028280704777
:1042E00000BFFEE710B586B0044601210420FFF7A9
:1042F000BBFC01218803FFF7B7FC18208DF81700DD
:104300004FF40070ADF8140003208DF8160005A9D5
:104310001E48FEF7D9F804208DF817000002ADF80A
:10432000140003208DF8160005A91848FEF7CCF8F4
:1043300001940020ADF810000C20ADF80E00002014
:10434000ADF80C00ADF80A00ADF8080001A910485E
:10435000FFF756FF01210E48FFF7E9FE012240F268
:1043600025510B48FFF726FF25208DF8000001207E
:104370008DF8030000208DF8010002208DF8020066
:104380006846FEF7E9FE06B010BD000000080140D7
:104390000038014010B586B0044601210420FFF723
:1043A00063FC01214804FFF74FFC18208DF817002B
:1043B0000420ADF8140003208DF8160005A91E484E
:1043C000FEF782F804208DF817000820ADF81400DD
:1043D00003208DF8160005A91748FEF775F801941B
:1043E0000020ADF810000C20ADF80E000020ADF854
:1043F0000C00ADF80A00ADF8080001A90F48FFF75E
:10440000FFFE01210D48FFF792FE012240F22551E7
:104410000A48FFF7CFFE26208DF8000001208DF816
:10442000030000208DF801008DF802006846FEF7B9
:1044300093FE06B010BD000000080140004400409B
:104440000FB430B5CBB0054601AC50A800904FF486
:10445000947101A8009B4F9AFBF796FF00200090F3
:104460000BE014F8011B2846FFF736FF00BF402180
:104470002846FFF768FE0028F9D020780028F0D100
:104480004BB030BC5DF814FB2DE9F04107460C46FB
:10449000154600260DE014F8011B3846FFF71CFFF7
:1044A00000BF80213846FFF74EFE0028F9D0701C6F
:1044B00086B2AE42EFDBBDE8F081490050EAC12090
:1044C00018BF04204A0D18BF40F0010040F2FF72EF
:1044D000B2EB515F08BF40F00200012808BF052081
:1044E00070472DE9F0414F1E00EBC7010446D1E9AA
:1044F000000115461E4637F006020DD02A46334607
:1045000001F006FE7F1E04EBC703D3E9002301F090
:1045100069FB37F00602F1D1022F25D0042F13D00A
:10452000062F18BFBDE8F0812A46334601F0F0FDA2
:10453000D4E90A2301F056FB2A46334601F0E8FD90
:10454000D4E9082301F04EFB2A46334601F0E0FD92
:10455000D4E9062301F046FB2A46334601F0D8FD94
:10456000D4E9042301F03EFB2A46334601F0D0FD96
:10457000D4E9022301F036FB2A46334601F0C8FD98
:10458000D4E90023BDE8F04101F02CBB0022134622
:104590001046014901F0E2BB0000F03F01F022BBF0
:1045A000002213461046114601F0D8BB40F20132FA
:1045B00000204FF0E04102F07EB90000024A0020E6
:1045C000110702F078B9000001FDFFFF30380A281A
:1045D00001D20120704700207047000070B50446EA
:1045E00022E02568A08900F4807020B9A06810B18D
:1045F000A068FFF7F3FFA08900F4807028B9206954
:1046000018B10B49206909688847A08900F4007037
:1046100028B9206A18B10649206A096888472046E7
:104620000349096888472C46002CDAD170BD000088
:104630004400002070B505460E46AC6800E02468D2
:104640002CB13146206A00F04FF80028F7D12046FF
:1046500070BD000010B52820054909688847044648
:104660001CB128212046FCF797F9204610BD000018
:104670004000002010B5044600221146204600F0FC
:1046800001F810BD2DE9F04780460D46164600247E
:10469000FFF7E0FF07460020124908600FB9BDE8A8
:1046A000F087404601F010FA81464946384600F04E
:1046B000D1FC044624B93846FFF790FF0020EEE70E
:1046C00066B1204601F000FA0446207830B1384641
:1046D000FFF784FF034804600020E0E705B12C6089
:1046E0003846DCE73C00002070B504460D462CB986
:1046F000AC4201D0012070BD0020FCE70DB90120C3
:10470000F9E705E0207808B90020F4E7641C6D1C87
:104710002078FBF72BFE06462878FBF727FE86421B
:10472000F0D02078FBF722FE06462878FBF71EFE25
:10473000301AE0E710B56FF00400FFF785FB0A4878
:1047400000680A49B0FBF1F0094908700846007892
:1047500000EB4001C1EBC0104FF6FF7101EAC00051
:104760000449088010BD00000800002000127A00F3
:104770001C0000201E0000200146114A12884A43F6
:104780004FF0E0235A6100229A611A46126942F002
:1047900001021A6100BF4FF0E022106900F001022F
:1047A0001AB100F48032002AF5D04FF0E0221269ED
:1047B00022F001024FF0E0231A6100229A61704753
:1047C0001E0000200146114A12784A434FF0E023B0
:1047D0005A6100229A611A46126942F001021A6176
:1047E00000BF4FF0E022106900F001021AB100F49E
:1047F0008032002AF5D04FF0E022126922F0010247
:104800004FF0E0231A6100229A6170471C000020DB
:104810001FB50025A9464FF4E130FFF763FD4FF4C3
:10482000E130FFF7B7FDFFF785FFFDF7EBFEFDF782
:10483000C3FB41F61F4141F28730FFF779FBFEF7DA
:1048400053FD47A203210120FEF71CFE46A14B4861
:10485000FFF7F6FDFDF7B8FC03E04FF4FA70FFF741
:104860008BFFFEF743FE0028F7D101214448FFF7F4
:10487000B3F9002043490860FA20FFF77DFF0120CB
:104880004149C1F8A00169E0282095FBF0F100FB47
:104890001150002838D1FDF749FB0446642094FBF1
:1048A000F0F100FB1140394908700A2094FBF0F048
:1048B00037490870204601F0D8FB0746354A364B89
:1048C00001F026FC824601F05BF90646304601F015
:1048D0002FFF07463A460B4630A12848FFF7B0FDA8
:1048E00020213248FDF77BFE10B90120039001E042
:1048F0000020039020212E48FDF771FE10B9012001
:10490000029001E000200290C82D18DB29A11B486D
:10491000FFF796FD304601F00BFF07460B46DDE939
:1049200002103A46CDE9000127A13148FBF746FDC8
:104930002F493048FEF702FF0025FDF70FFC681CE9
:1049400085B20220FDF718FC8146B9F1000F02D0B4
:104950004846FEF731FF0A20FFF70EFF94E70000FC
:1049600057454C434F4D4500204861726477617252
:104970006520696E6974204F4B0D0A0000380140B4
:1049800004000020A081214200802142000000207C
:10499000010000209A9999999999B93F74656D70B1
:1049A0003D25302E31660D0A00000000000C01404C
:1049B000001801404F6E654E65745F5075626C69FA
:1049C00073680D0A000000007B2254656D70222080
:1049D0003A2025302E31662C224C656422203A2064
:1049E00025642C224265657022203A2025647D00D2
:1049F00048000020426900082DE9F04705460C46B2
:104A000020785B2804D0264804600020BDE8F087A9
:104A10000520E860601C01F057F8044620785D2806
:104A200001D1601CF2E7FFF715FE0646A860A868F2
:104A300008B90020EAE7204601F046F880464146E2
:104A4000304600F007FB074601F03EF804460CB97B
:104A50000020DBE717E0FFF7FDFD070000D1D5E7F9
:104A600037607E603E46601C01F02EF88146494664
:104A7000304600F0EFFA804601F026F804460CB903
:104A80000020C3E700BF20782C28E4D020785D28E0
:104A900001D1601CBAE7024804600020B6E70000BC
:104AA0003C000020014600220878302806DB087808
:104AB000392803DC08783038024415E008784128AA
:104AC00006DB0878462803DC0878373802440BE018
:104AD0000878612806DB0878662803DC08785738F0
:104AE000024401E0002070471201491C0878302878
:104AF00006DB0878392803DC08783038024415E0F2
:104B00000878412806DB0878462803DC087837381F
:104B100002440BE00878612806DB0878662803DC8D
:104B200008785738024401E00020DCE71201491CF4
:104B30000878302806DB0878392803DC0878303814
:104B4000024415E00878412806DB0878462803DC93
:104B50000878373802440BE00878612806DB0878CB
:104B6000662803DC08785738024401E00020BAE7E1
:104B70001201491C0878302806DB0878392803DC44
:104B800008783038024415E00878412806DB0878B8
:104B9000462803DC0878373802440BE0087861289F
:104BA00006DB0878662803DC08785738024401E001
:104BB000002098E7104696E72DE9F04F8BB083462A
:104BC0008A460020044605460026674F0021884695
:104BD00089460990012008909AF800002D2802D1FA
:104BE000624F0AF1010A9AF80000302801D10AF157
:104BF000010A9AF80000312822DB9AF800003928CF
:104C00001EDC00BF1AF8011BA1F1300001F02DFAE3
:104C10000022574BCDE906012046294601F078FADB
:104C2000CDE90401DDE9062300F0DCFF04460D4672
:104C30009AF80000302803DB9AF800003928E1DDFB
:104C40009AF800002E2830D19AF8010030282CDB89
:104C50009AF80100392828DC0AF1010A00BF1AF885
:104C6000011BA1F1300001F000FA0022404BCDE918
:104C700006012046294601F04BFACDE90401DDE9A1
:104C8000062300F0AFFF04460D460022364B404697
:104C9000494601F063FC804689469AF800003028B6
:104CA00003DB9AF800003928D9DD9AF8000065285E
:104CB00003D09AF80000452823D10AF1010A9AF896
:104CC00000002B2802D10AF1010A08E09AF800003E
:104CD0002D2804D14FF0FF3008900AF1010A08E0B6
:104CE0001AF8010B3038099901EB810100EB410002
:104CF00009909AF80000302803DB9AF80000392860
:104D0000EEDDDDE9082101FB02F001F0AEF94246DB
:104D10004B46CDE9000100F065FF02460B46CDE9A8
:104D200002010020124900F0F3F922462B46CDE99A
:104D300006013046394601F0EBF9CDE90401DDE921
:104D4000062301F0E5F904460D46CBE90645204669
:104D5000294601F05BF9CBF814000320CBF80C00D6
:104D600050460BB0BDE8F08F0000F03F0000F0BFF0
:104D7000000024402DE9F04706460C4620787B28A9
:104D800004D0404804600020BDE8F0870620F060B1
:104D9000601C00F099FE044620787D2801D1601C3B
:104DA000F2E7FFF757FC0546B060B06808B900208D
:104DB000EAE7204600F088FE80464146284600F09B
:104DC00063F8074600F080FE04460CB90020DBE7DC
:104DD000286928620020286120783A2803D02948D1
:104DE00004600020D0E7601C00F06EFE8046414663
:104DF000284600F02FF9074600F066FE04460CB97D
:104E00000020C1E731E0FFF725FC070000D1BBE738
:104E10002F607D603D46601C00F056FE814649468D
:104E2000284600F031F8804600F04EFE04460CB9EA
:104E30000020A9E7286928620020286120783A2804
:104E400003D01048046000209EE7601C00F03CFE88
:104E500081464946284600F0FDF8804600F034FEC1
:104E600004460CB900208FE700BF20782C28CAD058
:104E700020787D2801D1601C86E70248046000206C
:104E800082E700003C0000202DE9F05F8346884661
:104E900008F10104002798F80000222805D06A488C
:104EA000C0F800800020BDE8F09F04E014F8011B6A
:104EB0005C2900D1641C2078222804D0207810B10D
:104EC000781C0700F2D1781C604909688847814640
:104ED000B9F1000F01D10020E5E708F101044D46CA
:104EE0009EE020785C2804D014F8010B05F8010B33
:104EF00096E0641C2078722818D006DC622809D05D
:104F000066280BD06E287DD10CE0742812D075284D
:104F1000F9D113E0082005F8010B7FE00C2005F81B
:104F2000010B7BE00A2005F8010B77E00D2005F866
:104F3000010B73E0092005F8010B6FE0601CFFF71F
:104F4000B1FD0646241DB6F55C4F02D3B6F5604FA1
:104F500000D306B962E0B6F5584F1CD3B6F55C4FE6
:104F600019D260785C2802D1A078752800D055E06D
:104F7000E01CFFF797FD8246A41DBAF55C4F02D3F3
:104F8000BAF5604F00D349E0C6F30901504661F31A
:104F90009F2000F580360427802E01D2012708E0EB
:104FA000B6F5006F01D2022703E0B6F5803F00D2CC
:104FB00003273D44012F20D0022F15D0032F0AD004
:104FC000042F24D106F0BF0040F08001681E054682
:104FD0000170B60900BF06F0BF0040F08001681EF6
:104FE00005460170B60900BF06F0BF0040F0800121
:104FF000681E05460170B60900BF1548C05D304304
:10500000C1B200E006E0681E0546017000BF00BFA7
:105010003D4403E0207805F8010B00BF00BF641C8D
:105020002078222803D0207800287FF45AAF00206F
:1050300028702078222800D1641CCBF8109004201E
:10504000CBF80C0020462EE73C000020400000205A
:10505000486F000870B505460C460CB9002070BDBD
:10506000042224A12046FBF7B3FB18B90220E86014
:10507000201DF4E7052221A12046FBF7A9FB18B962
:105080000020E860601DEAE704221EA12046FBF72D
:105090009FFB20B90120E8606861201DDFE72078D0
:1050A000222804D121462846FFF7EEFED7E72078D4
:1050B0002D2805D02078302807DB2078392804DC1B
:1050C00021462846FFF778FDC9E720785B2804D100
:1050D00021462846FFF790FCC1E720787B2804D1C1
:1050E00021462846FFF746FEB9E70848046000203D
:1050F000B5E700006E756C6C0000000066616C73B3
:105100006500000074727565000000003C0000201E
:105110002DE9F04D16460F4694B01C4621F0004193
:1051200023F00042002814BF4FF0010C4FF0000C98
:105130000CEB470CFE4B0CEB03054FEA630C65458B
:105140002BD3350018BF012505EB44051D44F94B51
:105150009D4222D3F84B52EA060C02D09F4205D161
:1051600048B914B000201946BDE8F08D002808BFEA
:105170004FF0000C01D04FF0010C0CEB470313F57E
:10518000001F0AD8002E14BF4FF0010C4FF0000C86
:105190000CEB440313F5001F07D914B03246234625
:1051A0003946BDE8F04DFFF7F9B9DFF890834FF0CD
:1051B000000A002FB8BF424523DAE14B9A42A8BF4C
:1051C0004FF0020A1DDADC4B93421ADCDD4B03EB95
:1051D0002253142B08DDC3F1340C26FA0CF303FA26
:1051E0000CFCB4450DD108E05EB9C3F1140C22FAF1
:1051F0000CF303FA0CFC944503D103F00103C3F153
:10520000020A51EA00031BD1002C19DA002F18BF43
:10521000BAF1020F02D0BAF1010F07D00220FBF75A
:105220008AFC14B0BDE8F04DFFF7B0B90220FBF7DF
:1052300082FCFFF7ABF914B081F00041BDE8F08DBE
:10524000330070D1424525D107F1804212F580121A
:1052500001BF00280020B84914B008BFBDE8F08D98
:10526000B548884207DC002CA1BF1846214614B07F
:10527000BDE8F08D07E0002CBFBF184684F0004168
:1052800014B0BDE8F08DB0497944D1E9000114B003
:10529000BDE8F08DDFF8A0C262452AD1002C24DAE7
:1052A00039B1414517D1002804BF002002461CD166
:1052B00006E040B10220FBF73EFCFFF777F90A4613
:1052C000394600F0D7BA9D4A394614B0002062F33F
:1052D0001E01BDE8F08D08DA14B03B46BDE8F04D84
:1052E00002460020614600F039BD14B03946BDE8E1
:1052F000F08D414517DAB4F1804F0CD0A4F1005382
:10530000B3F1FF530FD13B1E0DDB14B01946BDE8BE
:10531000F04D00F0E2BB3B4614B00246BDE8F04D54
:10532000194600F0F5BE050027F000433AD1E1B17F
:10533000414537D1002F06DD002CA1BF002041469A
:1053400014B0BDE8F08D002F01DD002C1FDB002F15
:1053500016DA002C14DBBAF1010F4FF0000014BF75
:1053600076497A4914B0BDE8F08DBAF1020F18BF42
:10537000002F0CD0BAF1010F09D1002F07DA0BE092
:10538000002FB8BF002C0DDABAF1010F04D00020B5
:1053900014B00146BDE8F08D14B000204FF000417C
:1053A000BDE8F08D4FF0010808EBE77CCDF814C0A4
:1053B0005CEA0A0C0DD0DFF898C162457EDDDFF8AB
:1053C00094C1654B624512DD8B420ADB002C18DB71
:1053D00023E00120FBF7AFFB14B0BDE8F04DFFF771
:1053E000DFB8554A8A4202DC002C0ADC15E09942FB
:1053F00002DA002C11DA04E04F4B994219DD002C3F
:105400000BDD0220FBF797FBFFF7D0F84B4A14B0F7
:1054100061F31E021146BDE8F08D0220FBF78BFB05
:10542000FFF7CCF8444A14B061F31E021146BDE800
:10543000F08D0022394601F091F807460D466FF0D5
:10544000010201F038FA4FF05532444B00F094FF5E
:105450003A462B4600F05CFE0022414B00F08CFFE8
:1054600080468B463A462B461046194600F050FEC1
:1054700042465B4600F04CFE88460E904FF0C0421C
:10548000384B3846294600F043FE83460091364AA1
:10549000344B41460E9800F03BFE80460191334A62
:1054A000334B3846294600F033FE4246019B01F05B
:1054B00055F80D4602460B460C9000E011E05846A8
:1054C000009900F08FFB002788465A463846009B1B
:1054D00001F044F82B460C9A00F04EFF024600F013
:1054E00079B90020B1F5801F07DA35222846194620
:1054F00001F0E1F905466FF0340000EB2150A0F215
:10550000FF300190C1F3130040F07F6141F0405142
:10551000029118498842D8BF4FF0000B35DD16497B
:105520008142C8BF4FF0010B2FDC4FF0000B25E08C
:10553000FFFF1F00FFFF0F000000F03F0000F07FA3
:105540000000404301FCFFFF8C1D00000000F0FF45
:105550000000E0410000F043FFFFEF3F5555D53F0D
:105560000000E03F4715F73FFE822B6544DF5DF802
:105570000BAE543E8E9803007AB60B000198401C87
:1055800001900298A0F580100290FF48029978449B
:1055900000EBCB000991D0E9002328460B9312922F
:1055A00000F0DCFF00910A9028460B9B129A0999A3
:1055B00000F018FB02460B460020F44900F0CEFB39
:1055C000CDE90C010B46024600990A9800F0A0FDB7
:1055D0000690EF48884600277844029900681090AA
:1055E0004FF0005040EA610000EB8B4000F50021D5
:1055F00002910B9B129A109800F0B0FF2A46099B6B
:1056000000F0BAFE3A46434600F082FD089112903F
:1056100038464146029B109A00F07AFD009B0A9A98
:1056200000F0AAFE089B129A00F098FFDDE90C2317
:1056300000F06EFD0B91069A1290434610461946F3
:1056400000F066FD05460246D2480B460A91062147
:105650007844FEF746FF0A9B2A46089102901046BE
:10566000194600F055FD089B029A00F051FD0546D1
:105670000991434638461946069A00F0B3FA0B9B47
:10568000129A00F045FD2A46099B00F0ABFACDE9DD
:1056900008013A4643461046194600F039FD0A9182
:1056A0000022BD4B009000F09DFADDE9082300F0D8
:1056B00099FA0D463A46B84B384600F04FFF0A9B20
:1056C000009A00F04BFFDDE9082300F055FECDE91C
:1056D00008013A462B461046414600F019FD00915C
:1056E0000A90DDE908014346069A00F011FD069094
:1056F00088462B463A460B99129800F009FD43461E
:10570000069A00F06FFA80460B4602460D9100990A
:105710000A9800F067FA00200F460546009B0A9A97
:1057200000F01CFF42460D9B00F026FE88460E90BE
:105730004FF06042994B2846394600F0E9FC02914F
:105740000090974A954B41460E9800F0E1FC804648
:105750000391944A944B2846394600F0D9FC4246BE
:10576000039B00F03FFA914A7A4402EBCB03D3E962
:10577000002300F037FA05460791019800F075FC08
:105780000C9003912A46079B0299009800F02AFA90
:10579000874A7A4402EBCB03D3E900239346019373
:1057A00000F020FA039B0C9A00F01CFA00278846B0
:1057B0003846039B0C9A00F0D1FE5A46019B00F03C
:1057C000CDFE029B009A00F0C9FE2A46079B00F01E
:1057D000D3FD02460020069005986C4DAAF1010306
:1057E000184301D1734D069000200B4604903046BB
:1057F000214600F08DFC82468B46234630461946F2
:10580000049A00F0ABFE3A46434600F081FC524653
:105810005B4600F0E7F906468A463A46434621468B
:10582000049800F075FC04460F463246534600F0DB
:10583000D9F9614A8B46914221DBABEB020353EA73
:10584000000210D122463B4600F088FE80460391BC
:105850005A4A5B4B3046514600F0C4F94246039B1E
:1058600000F054FD27D20220FBF765F9FEF79EFEFB
:105870000A46294614B062F31E01BDE8F08D514B73
:105880002BF000429A4216D34F4A0BEB020353EA25
:10589000000208D122463B4600F060FE32465346E5
:1058A00000F034FD07D80220FBF745F9FEF786FE2D
:1058B0000A462946DEE72BF000404449444A01EB02
:1058C00020514FF00008824223DA481C4FF4801127
:1058D00021FA00F058443F4AC0F30A517A443E4B43
:1058E000A1F2FF31CB4020EA0303C0F3130040F4E0
:1058F000801CC1F1140012682CFA00F8BBF1000FF3
:10590000B8BFC8F100082046394600F027FE04461B
:105910000F4622463B463046514600F063F94FF0B1
:10592000000B5A462D4B5846039100F0F1FB0091B5
:105930000A902B4A2B4B5846039900F0E9FB04913F
:10594000029022463B465846039900F007FE324635
:10595000534600F011FD244A244B00F0D9FB049B70
:10596000029A00F03FF907468A46009B0A9A00F027
:1059700039F904460E46009B0A9A00F0EFFD3A46BC
:10598000534600F0F9FC33E0F61900000000F03F48
:105990003C1A0000641900000000084009C7EE3FEF
:1059A000FD033ADCF5015B14E02F3EBE3C1800001D
:1059B000021800000000F0BF00009040FE822B653E
:1059C0004715973C00CC904000346F3F01FCFFFF2F
:1059D0000000E03F38170000FFFF0F00432EE63FB6
:1059E000396CA80C615C20BEEF39FAFE422EE63F0E
:1059F0000746224633460F911046194600F088FBB1
:105A0000834602462E488A460B4605217844FEF717
:105A100068FD5A46534600F07BFB2246334600F0B1
:105A2000ABFC82468B463A46204631460F9B00F03F
:105A30006FFB3A460F9B00F0D5F80F460A90002204
:105A40004FF080435046594600F088FD0391009086
:105A500052465B462046314600F05AFB039B009AB3
:105A600000F07CF93B460A9A00F078FD2246334666
:105A700000F074FD0022134B00F07EFC0E4604463D
:105A800001EB08510815002810DC4246204631463B
:105A900000F011FFFEF711FD042808BFFEF78EFD90
:105AA00042462046314600F006FF044606980B4663
:105AB00014B022462946BDE8F04D00F029BB000095
:105AC000D81500000000F03F00E0401C20B1017834
:105AD00011B101782029F8DD70472DE9F041064623
